:100000000C942A000C9447000C9447000C94470071
:100010000C9447000C9447000C9447000C94470044
:100020000C9447000C9447000C9447000C94470034
:100030000C9447000C9447000C9447000C94470024
:100040000C9447000C9447000C9447000C94470014
:100050000C94470011241FBECFE5D8E0DEBFCDBF12
:1000600010E0A0E6B0E0EEEEF2E002C005900D92E6
:10007000AA36B107D9F720E0AAE6B0E001C01D9288
:10008000AC36B207E1F70E94F3000C9475010C94B2
:100090000000442379F04130D1F4E82FF0E02181D1
:1000A00081E090E002C0880F991F6A95E2F7822BE9
:1000B00081830895E82FF0E0218181E090E002C083
:1000C000880F991F6A95E2F78095822381830895AE
:1000D000442379F04130D1F4E82FF0E0228181E02F
:1000E00090E002C0880F991F6A95E2F7822B828305
:1000F0000895E82FF0E0228181E090E002C0880FAF
:10010000991F6A95E2F780958223828308950E9461
:100110007101982F9B7F923421F0823511F08C343D
:1001200019F480936A00089580936B0008951F93DB
:10013000CF93DF93162FD42FC22F482F60E089E38F
:100140000E946800412F61E089E30E9468004D2F02
:1001500062E089E30E9468004C2F63E089E30E941B
:100160006800CAE6D0E0698183E690E00E944E0113
:10017000698180E690E00E944E01DF91CF911F914E
:1001800008950E94870080916A00863449F018F42F
:10019000823469F021C08C34C1F0823579F01CC002
:1001A00020E041E060E081E00E949700089521E0B6
:1001B00040E061E080E00E949700089521E040E087
:1001C00060E081E00E949700089520E041E061E056
:1001D00080E00E949700089520E040E060E080E029
:1001E0000E949700089586E690E00E94580183E6F9
:1001F00090E00E94160180E690E00E94160141E026
:1002000060E089E30E94490041E061E089E30E94E7
:10021000490041E062E089E30E94490041E063E077
:1002200089E30E9449000E94C100FDCFFC0180814A
:10023000811119C0BB9A12BE1CBE83B7886083BFF0
:1002400083B7806483BF23B7918130E1939FC0015E
:100250001124922F9F7C892B83BF83B7887F928143
:10026000892B83BF08958130C1F48F9A14BC13BCCD
:1002700085B5886085BD85B5806485BD25B59181CE
:1002800030E1939FC0011124922F9F7C892B85BD63
:1002900085B5887F9281892B85BD0895FC01808179
:1002A000811102C06CBF0895813009F463BD0895C7
:1002B000FC01208180E1289F900111249181990FF8
:1002C000990F990F292B922F90682281220F292BA9
:1002D00020BD88E18AB982E08BB987E689B910BC74
:0E02E00008955F9BFECF8CB10895F894FFCF78
:0A02EE0001020200020200000300FA
:00000001FF
