S01F0000536F6C61722050616E656C20547261636B65722D4543552E73726563FE
S11300000C942A000C9447000C9447000C9447006D
S11300100C9447000C9447000C9447000C94470040
S11300200C9447000C9447000C9447000C94470030
S11300300C9447000C9447000C9447000C94470020
S11300400C9449000C9447000C9447000C9447000E
S11300500C94470011241FBECFE5D8E0DEBFCDBF0E
S113006010E0A0E6B0E0E4E4F6E002C005900D92F2
S1130070AC3AB107D9F720E0ACEAB0E001C01D9278
S1130080AF3BB207E1F70E9466020C9420030C9484
S113009000001F920F920FB60F9211242F938F938B
S11300A09F9324B185B190E0820F911D9093AD0090
S11300B08093AC009F918F912F910F900FBE0F9062
S11300C01F901895FC01208180E4289F9001112441
S11300D027B98281811105C081818770806886B9C2
S11300E00895813021F481818770886886B90895E4
S11300F097B1907E8770892B87B9369AFB018281EC
S1130100811109C0349BFECF349A84B195B1909388
S1130110AD008093AC000895442379F04130D1F4CC
S1130120E82FF0E0218181E090E002C0880F991F60
S11301306A95E2F7822B81830895E82FF0E021810C
S113014081E090E002C0880F991F6A95E2F78095DC
S1130150822381830895E82FF0E062830895442385
S113016079F04130D1F4E82FF0E0228181E090E091
S113017002C0880F991F6A95E2F7822B8283089543
S1130180E82FF0E0228181E090E002C0880F991FFF
S11301906A95E2F780958223828308951F93CF9313
S11301A0DF93EC01162F6B8570E0898540E050E009
S11301B090E00E94AF00612F70E0888190E00E947F
S11301C0AB006A8570E0898541E050E090E00E94D0
S11301D0AF008FEC97E00197F1F700C000006A854B
S11301E070E0898540E050E090E00E94AF0087EC29
S11301F090E00197F1F700C00000DF91CF911F91CB
S11302000895EF92FF920F931F93CF93DF938C0186
S1130210EC0121967C0189E0E80EF11C699170E003
S1130220F801808141E050E090E00E948C00CE15FE
S1130230DF05A1F7F801628570E0818541E050E0B7
S113024090E00E948C00F801638570E0818541E0B4
S113025050E090E00E948C008FE99FE00197F1F755
S113026000C0000068E3C8010E94CE006CE0C80131
S11302700E94CE0061E0C8010E94CE00EFE9FFE0D9
S11302803197F1F700C0000066E0C8010E94CE007B
S1130290DF91CF911F910F91FF90EF9008951F93DD
S11302A0CF93DF93EC01162F6B8570E0898541E0D5
S11302B050E090E00E94AF00612F70E0888190E0F0
S11302C00E94AB006A8570E0898541E050E090E0CF
S11302D00E94AF008FEC97E00197F1F700C0000097
S11302E06A8570E0898540E050E090E00E94AF00AC
S11302F087EC90E00197F1F700C00000DF91CF9107
S11303001F910895EF92FF920F931F93CF93FB01D8
S11303106081662369F08F017C01C0E0C7010E94FF
S11303204F01CF5FF801EC0FF11D60816111F6CF31
S1130330CF911F910F91FF90EF900895611105C027
S1130340642F60680E94CE000895613029F4642F00
S1130350606C0E94CE000895623029F4642F6069B5
S11303600E94CE000895633021F4642F606D0E94D2
S1130370CE00089562E770E080E00E9478008091EA
S1130380AC009091AD009093BA008093B90062E7FD
S113039070E081E00E9478008091AC009091AD0003
S11303A09093BE008093BD0062E770E082E00E94FB
S11303B078008091AC009091AD009093B800809348
S11303C0B70062E770E083E00E9478008091AC009F
S11303D09091AD009093BC008093BB000895A091D0
S11303E0B900B091BA006091BD007091BE00EEEA10
S11303F0F0E0AD01460F571F569547955183408352
S11304002091B7003091B8008091BB009091BC005E
S1130410A901480F591F56954795538342832A0FC4
S11304203B1F3695279535832483860F971F969512
S11304308795978386830895EEEAF0E020813181E1
S1130440828193818217930718F442E04093B600A7
S11304502817390718F483E08093B600EEEAF0E039
S113046024813581868197818217930718F441E0AE
S11304704093B6002817390710F41092B600089577
S1130480CF93C62F482F64E086E30E94AF004C2F21
S113049065E086E30E94AF006FEF83E690E00E9480
S11304A01603CF910895CF93C62F482F66E086E3B5
S11304B00E94AF004C2F67E086E30E94AF006FEF0D
S11304C080E690E00E941603CF91089582E790E0C1
S11304D00E94620083E690E00E94DE0280E690E0E3
S11304E00E94DE0286E690E00E94010141E064E0A1
S11304F086E30E948C0041E065E086E30E948C0064
S113050041E066E086E30E948C0041E067E086E318
S11305100E948C0040E060E086E690E00E949E012C
S113052065E770E086E690E00E94820140E061E0C9
S113053086E690E00E949E0166E870E086E690E020
S11305400E94820140E062E086E690E00E949E0103
S113055068E970E086E690E00E94820140E063E092
S113056086E690E00E949E0163EA70E086E690E0F1
S11305700E9482010E94BA010E94EF010E941C02A3
S11305808091B6008130A9F078F0823019F0833080
S113059031F0F0CF60E081E00E944002EBCF61E0F7
S11305A080E00E944002E6CF60E081E00E945302B6
S11305B0E1CF61E080E00E945302DCCFFC01808146
S11305C0811119C0BB9A12BE1CBE83B7886083BF59
S11305D083B7806483BF23B7918130E1939FC001C7
S11305E01124922F9F7C892B83BF83B7887F9281AC
S11305F0892B83BF08958130C1F48F9A14BC13BC36
S113060085B5886085BD85B5806485BD25B5918136
S113061030E1939FC0011124922F9F7C892B85BDCB
S113062085B5887F9281892B85BD0895FC018081E1
S1130630811102C06CBF0895813009F463BD08952F
S1070640F894FFCF58
S1130644010202000202330001020304050607301A
S11306540001010300547261636B65722053797362
S113066474656D20200048657265205765206469AF
S113067473706C6179203A004C44522076616C7535
S10F0684657300506F736974696F6E0039
S9030000FC
