:100000000C942A000C9447000C9447000C94470071
:100010000C9447000C9447000C9447000C94470044
:100020000C9447000C9447000C9447000C94470034
:100030000C9447000C9447000C9447000C94470024
:100040000C9449000C9447000C9447000C94470012
:100050000C94470011241FBECFE5D8E0DEBFCDBF12
:1000600010E0A0E6B0E0E8ECF6E002C005900D92EA
:10007000A83AB107D9F720E0A8EAB0E001C01D9284
:10008000AC3AB207E1F70E948E020C9462030C9422
:1000900000001F920F920FB60F9211248F939F931F
:1000A00084B190E09093A9008093A8009F918F91D4
:1000B0000F900FBE0F901F901895FC01208180E4D7
:1000C000289F9001112427B98281811105C0818167
:1000D0008770806886B90895813021F481818770A6
:1000E000886886B9089597B1907E8770892B87B903
:1000F000369AFB018281811109C0349BFECF349A6C
:1001000084B195B19093A9008093A80008954423E9
:1001100079F04130D1F4E82FF0E0218181E090E0E6
:1001200002C0880F991F6A95E2F7822B8183089598
:10013000E82FF0E0218181E090E002C0880F991F54
:100140006A95E2F78095822381830895E82FF0E095
:1001500062830895442379F04130D1F4E82FF0E030
:10016000228181E090E002C0880F991F6A95E2F732
:10017000822B82830895E82FF0E0228181E090E0D5
:1001800002C0880F991F6A95E2F7809582238283C7
:100190000895E82FF0E0208181E090E002C0880F10
:1001A000991F6A95E2F7922F982381E009F480E085
:1001B00008951F93CF93DF93EC01162F6B8570E0AA
:1001C000898540E050E090E00E94AA00612F70E035
:1001D000888190E00E94A6006A8570E0898541E0F0
:1001E00050E090E00E94AA008FEC97E00197F1F7B1
:1001F00000C000006A8570E0898540E050E090E032
:100200000E94AA0087EC90E00197F1F700C000007F
:10021000DF91CF911F910895EF92FF920F931F935B
:10022000CF93DF938C01EC0121967C0189E0E80EED
:10023000F11C699170E0F801808141E050E090E0AC
:100240000E948700CE15DF05A1F7F801628570E0F6
:10025000818541E050E090E00E948700F8016385CD
:1002600070E0818541E050E090E00E9487008FE9D6
:100270009FE00197F1F700C0000068E3C8010E9409
:10028000D9006CE0C8010E94D90061E0C8010E9459
:10029000D900EFE9FFE03197F1F700C0000066E018
:1002A000C8010E94D900DF91CF911F910F91FF905B
:1002B000EF9008951F93CF93DF93EC01162F6B857A
:1002C00070E0898541E050E090E00E94AA00612F33
:1002D00070E0888190E00E94A6006A8570E08985C0
:1002E00041E050E090E00E94AA008FEC97E0019777
:1002F000F1F700C000006A8570E0898540E050E0B9
:1003000090E00E94AA0087EC90E00197F1F700C00E
:100310000000DF91CF911F910895EF92FF920F930C
:100320001F93CF93FB016081662369F08F017C01ED
:10033000C0E0C7010E945A01CF5FF801EC0FF11D28
:1003400060816111F6CFCF911F910F91FF90EF90D7
:100350000895611105C0642F60680E94D900089556
:10036000613029F4642F606C0E94D90008956230D6
:1003700029F4642F60690E94D9000895633021F444
:10038000642F606D0E94D90008950F931F93CF933F
:10039000DF93CDB7DEB7A0970FB6F894DEBF0FBEE0
:1003A000CDBF8C01CB014AE050E0BE016F5F7F4FB3
:1003B0000E942203BE016F5F7F4FC8010E948D0122
:1003C000A0960FB6F894DEBF0FBECDBFDF91CF91E0
:1003D0001F910F91089540E060E086E30E9487003E
:1003E00040E061E086E30E94870040E062E086E34F
:1003F0000E94870040E063E086E30E9487008FE66A
:1004000090E00E945D008CE690E00E94040380E68C
:1004100090E00E940C01089560E086E30E94C9000C
:10042000882319F01092AA0021C061E086E30E949F
:10043000C900882321F081E08093AA0017C062E000
:1004400086E30E94C900882321F083E08093AA00FC
:100450000DC063E086E30E94C900882321F082E09A
:100460008093AA0003C084E08093AA009091AA0020
:1004700080917200981721F08091AA0080937200F9
:1004800008956FE670E080E00E9473008091A800FC
:100490009091A90096958795969587958093AB0046
:1004A00008950E940C020E94410208950F931F9329
:1004B000CF938C01C62F40E060E080E690E00E9480
:1004C000A90163E770E080E690E00E948D0145E0BD
:1004D00061E080E690E00E94A901B80180E690E02A
:1004E0000E948D0140E062E080E690E00E94A90158
:1004F0006FE770E080E690E00E948D0145E063E0E8
:1005000080E690E00E94A9016C2F70E080E690E008
:100510000E94C501CF911F910F9108950E94EB0198
:100520000E9451028091AA00823009F445C028F44B
:100530008823D1F0813061F1F3CF833009F450C0CA
:10054000843071F760E087E890E00E94560283E50E
:100550000E941D038FEC97E00197F1F700C00000A7
:1005600080E00E941D03DCCF6091AB008CE890E03E
:100570000E94560286E40E941D038FEC97E00197CB
:10058000F1F700C000008091AB000E941D03C8CFAE
:100590006091AB0084E990E00E94560282E40E94E0
:1005A0001D038FEC97E00197F1F700C000008091E8
:1005B000AB000E941D03B4CF6091AB008DE990E0C9
:1005C0000E94560282E50E941D038FEC97E001977E
:1005D000F1F700C000008091AB000E941D03A0CF86
:1005E0006091AB0083EA90E00E9456028CE40E9486
:1005F0001D038FEC97E00197F1F700C00000809198
:10060000AB000E941D038CCFFC01208180E1289F5C
:10061000900111249181990F990F990F292B922FF5
:1006200090682281220F292B20BD88E18AB982E0BF
:100630008BB987E689B910BC08958CB95E9BFECF53
:100640005E9A08954532510520F4423010F00C9422
:100650002D03FB011082CB010895BB274A3031F4F2
:10066000992322F4BDE2909581959F4F0C94390314
:10067000BB27FB015527AA27880F991FAA1FA4177C
:1006800010F0A41B83955051B9F7A05DAA3308F070
:10069000A95DA193009779F7B111B1931192CB01A4
:1006A0000C945203DC01FC01672F71917723E1F771
:1006B000329704C07C916D9370836291AE17BF072F
:0806C000C8F30895F894FFCF80
:1006C800330001020304050607300203000003019A
:1006D800030004446972656374696F6E3A200053BD
:1006E800706565643A200053746F7000466F7277C6
:1006F800617264004261636B77617264005269677A
:080708006874004C6566740082
:00000001FF
